:020000040800F2
:10000000006000208D3B0008D33B0008D53B000872
:10001000D73B0008D93B0008DB3B0008000000008C
:10002000000000000000000000000000DD3B0008B0
:10003000DF3B000800000000E13B000881380008B9
:10004000E73B0008E93B0008EB3B0008ED3B0008FC
:10005000EF3B0008F13B00087D140008B1140008D4
:10006000E514000819150008FB3B0008FD3B0008DB
:10007000FF3B0008013C0008033C0008053C000869
:10008000073C0008093C00080B3C00080D3C000838
:100090000F3C0008113C0008133C0008153C000808
:1000A000173C0008193C00081B3C00081D3C0008D8
:1000B0001F3C00084D150008292A0008253C0008AF
:1000C000273C0008293C00082B3C00082D3C000878
:1000D0002F3C0008313C0008333C0008353C000848
:1000E000373C0008393C00083B3C00083D3C000818
:1000F0003F3C0008891600080000000000000000D6
:100100000000000000000000433C0008453C0008DF
:100110000000000000000000473C0008493C0008C7
:100120004B3C00084D3C00084F3C0008513C000887
:10013000533C0008553C0008573C0008593C000857
:100140005B3C000800000000000000000000000010
:10015000000000000000000000000000000000009F
:1001600000000000000000005D3C00085F3C00084B
:10017000613C000800000000633C00080000000033
:1001800000000000653C000810B5054C237833B929
:10019000044B13B10448AFF300800123237010BD5A
:1001A0009C010020000000008449000808B5064BAF
:1001B0001BB106480649AFF300800648036813B137
:1001C000054B03B1984708BD0000000084490008B2
:1001D000A00100209C01002000000000154B002B16
:1001E00008BF134B9D46A3F5803A00218B460F466E
:1001F0001348144A121A03F099FE0F4B002B00D03B
:1002000098470E4B002B00D0984700200021040097
:100210000D000D48002802D00C48AFF3008003F019
:100220005FFE2000290002F081FC03F045FE00BFC4
:100230000000080000600020000000000000000036
:100240009C010020DC0100200000000000000000F4
:1002500080B485B000AF78604FF00003FB604FF4CE
:100260008063C4F20103FB607B689B79002B78D02C
:100270004FF48063C4F201034FF48062C4F20102C0
:1002800011687A6812686FEA02020A401A604FF435
:100290008063C4F201034FF48062C4F2010251682A
:1002A0007A6812686FEA02020A405A607B681B791A
:1002B000FA68D318FB60FB68FA6811687A681268FC
:1002C0000A431A604FF48063C4F201034FF4806262
:1002D000C4F2010291687A6812686FEA02020A4069
:1002E0009A604FF48063C4F201034FF48062C4F259
:1002F0000102D1687A6812686FEA02020A40DA6085
:100300007B685B79102B1AD14FF48063C4F2010330
:100310004FF48062C4F2010291687A6812680A435D
:100320009A604FF48063C4F201034FF48062C4F218
:100330000102D1687A6812680A43DA601FE04FF45C
:100340008063C4F20103FB607B685B79FA68D318B1
:10035000FB60FB68FA6811687A6812680A431A60E1
:100360000DE07B681B79FA68D318FB60FB68FA68BC
:1003700011687A6812686FEA02020A401A6007F18F
:100380001407BD4680BC704780B485B000AF78606C
:100390004FF00003FB734FF00003BB604FF480632A
:1003A000C4F201031A687B681340BB604FF480639A
:1003B000C4F201035A697B681340002B06D0BB6866
:1003C000002B03D04FF00103FB7302E04FF000035A
:1003D000FB73FB7B184607F11407BD4680BC7047D2
:1003E00080B483B000AF78604FF48063C4F201033F
:1003F0007A685A6107F10C07BD4680BC704700BFA0
:1004000080B400AF4FF40053C4F202031B6903F041
:100410008003002B11D04FF40053C4F2020340F2CA
:100420002312C4F267525A604FF40053C4F202031D
:1004300048F6AB12CCF6EF525A60BD4680BC70470E
:1004400080B584B000AF78604FF00403FB734FF4C5
:10045000302000F0ADF80346FB73FB7B042B2FD15B
:100460004FF40053C4F202034FF40052C4F20202EC
:10047000126942F002021A614FF40053C4F20203FF
:100480007A685A614FF40053C4F202034FF40052E9
:10049000C4F20202126942F040021A614FF43020A5
:1004A00000F086F80346FB734FF40053C4F20203D6
:1004B0004FF40052C4F20202126922F002021A61E1
:1004C000FB7B184607F11007BD4680BD80B584B0A0
:1004D00000AF78600B467B804FF00403FB734FF452
:1004E000302000F065F80346FB73FB7B042B20D122
:1004F0004FF40053C4F202034FF40052C4F202025C
:10050000126942F001021A617B687A881A804FF4FE
:10051000302000F04DF80346FB734FF40053C4F253
:1005200002034FF40052C4F20202126922F00102E7
:100530001A61FB7B184607F11007BD4680BD00BF5E
:1005400080B483B000AF4FF00403FB714FF400534D
:10055000C4F20203DB6803F00103002B03D04FF069
:100560000103FB711CE04FF40053C4F20203DB688B
:1005700003F01003002B03D04FF00203FB710FE0D8
:100580004FF40053C4F20203DB6803F00403002BB2
:1005900003D04FF00303FB7102E04FF00403FB7143
:1005A000FB79184607F10C07BD4680BC704700BFB9
:1005B00080B584B000AF78604FF00403FB73FFF7A1
:1005C000BFFF0346FB7307E0FFF7BAFF0346FB7369
:1005D0007B6803F1FF337B60FB7B012B02D17B68DF
:1005E000002BF1D17B68002B02D14FF00503FB7388
:1005F000FB7B184607F11007BD4680BD80B487B06D
:1006000000AF786039604FF000037B614FF000036A
:100610003B614FF00003FB604FF000037B618CE017
:100620007B694FF0010202FA03F33B613B681A68F1
:100630003B691340FB60FA683B699A4279D13B6899
:100640001B79012B03D03B681B79022B3AD17B68C5
:100650009A687B694FEA43034FF0030101FA03F301
:100660006FEA03031A407B689A607B689A683B686C
:100670005B7919467B694FEA430301FA03F31A4396
:100680007B689A607B689B889AB27B699BB24FF0CB
:10069000010101FA03F39BB26FEA03039BB213401B
:1006A0009AB27B689A807B689B889AB23B689B79F8
:1006B00019467B699BB201FA03F39BB213439AB2CA
:1006C0007B689A807B681A687B694FEA43034FF026
:1006D000030101FA03F36FEA03031A407B681A600F
:1006E0007B681A683B681B7919467B694FEA4303AC
:1006F00001FA03F31A437B681A607B68DA687B6946
:100700009BB24FEA43034FF0030101FA03F36FEA90
:1007100003031A407B68DA607B68DA683B68DB7940
:1007200019467B694FEA430301FA03F31A437B68D6
:10073000DA607B6903F101037B617B690F2B7FF634
:100740006FAF07F11C07BD4680BC704780B485B011
:1007500000AF78600B467B804FF00003FB737B6833
:100760001B8A9AB27B8813409BB2002B03D04FF0B8
:100770000103FB7302E04FF00003FB73FB7B1846A1
:1007800007F11407BD4680BC704700BF80B483B03A
:1007900000AF78600B467B807A887B689A6107F1AE
:1007A0000C07BD4680BC704780B483B000AF786052
:1007B0000B467B807B687A881A8507F10C07BD465B
:1007C00080BC704780B483B000AF786013460A469F
:1007D0007A807B707B78002B03D07A887B689A6163
:1007E00002E07B687A881A8507F10C07BD4680BC59
:1007F000704700BF80B485B000AF786013460A46EA
:100800007A807B704FF00003FB604FF00003BB6009
:100810007A787B8803F007034FEA830302FA03F335
:10082000FB607B884FEAD3039BB21A467B884FEA72
:10083000D3039BB219467B6801F1080153F82110DC
:100840007B8803F007034FEA83034FF00F0000FAA1
:1008500003F36FEA030319407B6802F1080243F8CF
:1008600022107B884FEAD3039BB21A467B6802F1C1
:10087000080253F82220FB681343BB607B884FEAD1
:10088000D3039BB21A467B6802F10802B96843F8A9
:10089000221007F11407BD4680BC704780B487B0B2
:1008A00000AF78604FF000037B614FF000033B61C5
:1008B0004FF00F03FB607B68DB78002B47D04FF4D1
:1008C0006D43CEF20003DB686FEA030303F4E063D9
:1008D0004FEA13237B617B69C3F104033B617B69AE
:1008E000FA6822FA03F3FB607B685B781A463B697F
:1008F00002FA03F37B617B689B781A46FB6813401E
:100900007A6913437B617B694FEA03137B614FF480
:100910006143CEF200037A68127811467A69D2B246
:100920005B1883F800234FF46143CEF200037A682A
:1009300012784FEA5212D2B27968097801F01F0199
:100940004FF0010000FA01F143F8221014E04FF4D7
:100950006143CEF200037A6812784FEA5212D2B2A3
:100960007968097801F01F014FF0010000FA01F1E8
:1009700002F1200243F8221007F11C07BD4680BC9B
:10098000704700BF80B483B000AF0346FB7141F2F3
:100990000703C4F20203FA791A7007F10C07BD4687
:1009A00080BC704780B489B000AF78604FF000031E
:1009B000FB614FF00003BB614FF000037B614FF020
:1009C00000033B614FF00003FB604FF48053C4F21F
:1009D00002035B6803F00C03FB61FB69042B0AD084
:1009E000082B0FD0002B47D17A684FF49053C0F2F8
:1009F0007A03136047E07A684FF41053C0F2F403AF
:100A0000136040E04FF48053C4F202035B6803F4C8
:100A10007013BB614FF48053C4F202035B6803F4AC
:100A200080337B61BB694FEA934303F10203BB61EF
:100A30007B69002B09D1BA694FF41063C0F23D0302
:100A400003FB02F27B681A601DE04FF48053C4F28E
:100A50000203DB6A03F00F0303F101033B614FF470
:100A60001053C0F2F4033A69B3FBF2F3BA6902FB24
:100A700003F27B681A6006E07A684FF49053C0F284
:100A80007A03136000BF4FF48053C4F202035B6823
:100A900003F0F003FB61FB694FEA1313FB6140F2C3
:100AA0000003C2F20003FA699B181B78DBB2FB60FB
:100AB0007B681A68FB6822FA03F27B685A604FF47D
:100AC0008053C4F202035B6803F4E063FB61FB69DB
:100AD0004FEA1323FB6140F20003C2F20003FA69FC
:100AE0009B181B78DBB2FB607B685A68FB6822FAB4
:100AF00003F27B689A604FF48053C4F202035B6890
:100B000003F46053FB61FB694FEAD323FB6140F2BE
:100B10000003C2F20003FA699B181B78DBB2FB608A
:100B20007B685A68FB6822FA03F27B68DA604FF44C
:100B30008053C4F202035B6803F44043FB61FB692A
:100B40004FEA9333FB6140F21003C2F20003FA69EB
:100B50009B181B78DBB2FB607B68DA68FB68B2FB32
:100B6000F3F27B681A614FF48053C4F202035B68AE
:100B700003F07843FB61FB694FEAD36303F00F0393
:100B8000FB6140F21403C2F20003FA699B181B7860
:100B9000DBB2FB607B681A68FB68B2FBF3F27B6830
:100BA0005A614FF48053C4F202031B6B03F04003FD
:100BB000002B04D17B6848F212029A6103E07B6843
:100BC0004FF400429A614FF48053C4F202031B6B4E
:100BD00003F01003002B06D17A684FF49053C0F253
:100BE0007A03D36103E07B681A687B68DA614FF4AB
:100BF0008053C4F202031B6B03F02003002B06D1C9
:100C00007A684FF49053C0F27A03136203E07B6872
:100C10001A687B681A624FF48053C4F202031B6B9C
:100C200003F00303002B04D17B68DA687B685A6207
:100C30002AE04FF48053C4F202031B6B03F003035A
:100C4000012B04D17B681A687B685A621CE04FF460
:100C50008053C4F202031B6B03F00303022B04D185
:100C60007B684FF400425A620EE04FF48053C4F2A6
:100C700002031B6B03F00303032B05D17A684FF4C7
:100C80009053C0F27A0353624FF48053C4F20203CC
:100C90001B6B03F44033002B04D17B689A687B689C
:100CA0009A622DE04FF48053C4F202031B6B03F4ED
:100CB0004033B3F5803F04D17B681A687B689A6241
:100CC0001EE04FF48053C4F202031B6B03F4403365
:100CD000B3F5003F04D17B684FF400429A620FE005
:100CE0004FF48053C4F202031B6B03F44033B3F59B
:100CF000403F05D17A684FF49053C0F27A03936273
:100D00004FF48053C4F202031B6B03F44023002B07
:100D100004D17B689A687B68DA622DE04FF48053D7
:100D2000C4F202031B6B03F44023B3F5802F04D1FC
:100D30007B681A687B68DA621EE04FF48053C4F265
:100D400002031B6B03F44023B3F5002F04D17B682F
:100D50004FF40042DA620FE04FF48053C4F2020312
:100D60001B6B03F44023B3F5402F05D17A684FF491
:100D70009053C0F27A03D36207F12407BD4680BCCA
:100D8000704700BF80B483B000AF78600B46FB7043
:100D9000FB78002B0CD04FF48053C4F202034FF4C5
:100DA0008052C4F2020251697A680A435A610DE026
:100DB0004FF48053C4F202034FF48052C4F2020293
:100DC00051697A686FEA02020A405A6107F10C071A
:100DD000BD4680BC704700BF80B483B000AF786070
:100DE0000B46FB70FB78002B0CD04FF48053C4F201
:100DF00002034FF48052C4F2020291697A680A43F6
:100E00009A610DE04FF48053C4F202034FF4805214
:100E1000C4F2020291697A686FEA02020A409A619A
:100E200007F10C07BD4680BC704700BF80B483B09B
:100E300000AF78600B46FB70FB78002B0CD04FF4B2
:100E40008053C4F202034FF48052C4F20202D1690B
:100E50007A680A43DA610DE04FF48053C4F202036A
:100E60004FF48052C4F20202D1697A686FEA02023A
:100E70000A40DA6107F10C07BD4680BC704700BF2D
:100E800090B484B000AF02460B46FA71BB714FF0CC
:100E90000003FB60BB7903F003034FEA83034FF0C9
:100EA0000F0202FA03F3FB604FF00003C4F20103E8
:100EB000BA794FEA9202D2B210464FF00002C4F261
:100EC0000102B9794FEA9101C9B201F1020152F868
:100ED0002110FA686FEA0202114000F1020243F8A1
:100EE00022104FF00003C4F20103BA794FEA9202D4
:100EF000D2B210464FF00002C4F20102B9794FEAB3
:100F00009101C9B201F1020152F82110FC79BA79BC
:100F100002F003024FEA820204FA02F2114300F1E6
:100F2000020243F8221007F11007BD4690BC70473B
:100F300080B485B000AF786039604FF00003FB816A
:100F40007B681B88FB817B68B3F1804F1BD07A687C
:100F50004FF48063C4F200039A4214D07A684FF4CD
:100F60000063C4F200039A420DD07A684FF44063E4
:100F7000C4F200039A4206D07A684FF4B843C4F230
:100F800001039A4208D1FB8923F07003FB813B687F
:100F90005A88FB891343FB817A684FF48053C4F26B
:100FA00000039A4216D07A684FF4A053C4F20003AB
:100FB0009A420FD07A684FF41C43C4F200039A425D
:100FC00008D0FB8923F44073FB813B681A89FB89B5
:100FD0001343FB817B68FA891A803B685A687B68F7
:100FE000DA623B681A887B681A857A684FF4804316
:100FF000C4F201039A420DD07A684FF48843C4F2D8
:1010000001039A4206D07A684FF49043C4F2010378
:101010009A4204D13B689B7A1A467B681A867B68A1
:101020004FF001029A8207F11407BD4680BC704759
:1010300080B483B000AF786013460A467A803B8064
:101040007B687A881A857B683A889A8207F10C0750
:10105000BD4680BC704700BF80B483B000AF7860ED
:1010600039607B683A68DA6207F10C07BD4680BCDC
:10107000704700BF80B483B000AF78600B46FB7050
:10108000FB78002B08D07B681B889BB243F0800361
:101090009AB27B681A8007E07B681B889BB223F0BA
:1010A00080039AB27B681A8007F10C07BD4680BCAA
:1010B000704700BF80B483B000AF78600B46FB7010
:1010C000FB78002B08D07B681B889BB243F00103A0
:1010D0009AB27B681A8007E07B681B889BB223F07A
:1010E00001039AB27B681A8007F10C07BD4680BCE9
:1010F000704700BF80B485B000AF786039604FF0B2
:101100000003FB814FF00003BB814FF000037B81A4
:101110007B681B8C9BB223F480739AB27B681A8421
:101120007B681B8CBB817B689B887B817B689B8BEE
:10113000FB81FB8923F07003FB81FB8923F0030310
:10114000FB813B681A88FB891343FB81BB8923F42D
:101150000073BB813B689B894FEA03239AB2BB892A
:101160001343BB813B685B884FEA03239AB2BB8978
:101170001343BB817B687A899A807B68FA899A835A
:101180003B689A687B68DA637B68BA891A8407F1DE
:101190001407BD4680BC704780B483B000AF786050
:1011A00013460A467A807B707B78002B08D07B68D8
:1011B0009B899AB27B8813439AB27B689A810AE032
:1011C0007B689B899AB27B886FEA03039BB21340CA
:1011D0009AB27B689A8107F10C07BD4680BC7047C4
:1011E00080B485B000AF78600B467B804FF0000381
:1011F000FB734FF00003BB814FF000037B817B68E2
:101200001B8A9AB27B881340BB817B689B899AB208
:101210007B8813407B81BB89002B06D07B89002B08
:1012200003D04FF00103FB7302E04FF00003FB73A8
:10123000FB7B184607F11407BD4680BC704700BF12
:1012400080B483B000AF78600B467B807B886FEA08
:1012500003039AB27B681A8207F10C07BD4680BC73
:10126000704700BF80B487B000AFF86079813A81E1
:10127000FB804FF00003FB824FF00003BB824FF076
:1012800000037B82FB681B89FB82FB681B8BBB8294
:10129000FB681B8C7B82FB8A23F00703FB82FA8AA4
:1012A0007B891343FB82BB8A23F4407323F003033F
:1012B000BB82BB8A43F4807343F00103BB827B8A09
:1012C00023F022037B82FB884FEA03139AB23B8907
:1012D00013439AB27B8A13437B82FB68FA8A1A8192
:1012E000FB68BA8A1A83FB687A8A1A8407F11C079A
:1012F000BD4680BC704700BF80B586B000AF4FF4DC
:1013000000204FF00101FFF73DFD4FF000033B755A
:101310004FF00103BB754FF00F033B614FF001032A
:10132000FB754FF002037B7507F110034FF400606B
:10133000C4F600001946FFF761F94FF001004FF0C5
:101340000101FFF749FD4FF002004FF00001FFF7E8
:1013500097FD4FF002004FF00101FFF791FD4FF0B4
:1013600002004FF00201FFF78BFD4FF002004FF03B
:101370000301FFF785FD4FF00103BB604FF0010350
:10138000BB734FF000033B734FF00C037B7307F10B
:1013900008031846FEF75CFF4FF00203BB6007F13D
:1013A00008031846FEF754FF4FF00403BB6007F133
:1013B00008031846FEF74CFF4FF00803BB6007F127
:1013C00008031846FEF744FF4FF006033B714FF049
:1013D0000103FB714FF000037B714FF00003BB7101
:1013E00007F104031846FFF759FA4FF007033B7162
:1013F00007F104031846FFF751FA4FF008033B7159
:1014000007F104031846FFF749FA4FF009033B714F
:1014100007F104031846FFF741FA07F11807BD4624
:1014200080BD00BF80B485B000AF78607B684FF0AE
:10143000010202FA03F3FB6040F2B813C2F20003A8
:101440001A68FB681340002B10D0FB686FEA030298
:1014500040F2B813C2F200031B681A4040F2B813FE
:10146000C2F200031A604FF0010301E04FF00003E5
:10147000184607F11407BD4680BC704780B500AF21
:101480004FF00100FEF780FF0346002B0FD04FF016
:101490000100FEF7A5FF40F2B813C2F200031B687B
:1014A00043F0010240F2B813C2F200031A6080BD9B
:1014B00080B500AF4FF00200FEF766FF0346002B39
:1014C0000FD04FF00200FEF78BFF40F2B813C2F2CC
:1014D00000031B6843F0020240F2B813C2F200039B
:1014E0001A6080BD80B500AF4FF00400FEF74CFFDE
:1014F0000346002B0FD04FF00400FEF771FF40F2BF
:10150000B813C2F200031B6843F0040240F2B813A0
:10151000C2F200031A6080BD80B500AF4FF0080032
:10152000FEF732FF0346002B0FD04FF00800FEF706
:1015300057FF40F2B813C2F200031B6843F00802E1
:1015400040F2B813C2F200031A6080BD80B500AF4C
:101550004FF48060C4F200004FF00101FFF740FE3D
:101560000346002B07D04FF48060C4F200004FF018
:101570000101FFF765FE80BD80B592B000AF4FF46A
:1015800080204FF00101FFF7FDFB4FF480004FF08A
:101590000101FFF7F7FB4FF0010387F844304FF0EC
:1015A000010387F846304FF480433B644FF001035A
:1015B00087F847304FF0010387F8453007F14003C3
:1015C0004FF48060C4F600001946FFF717F84FF09B
:1015D000C0033B6407F140034FF4A050C4F6000081
:1015E0001946FFF70BF84FF480704FF00101FFF739
:1015F0001DFC4FF40050C4F200004FF00001FFF753
:1016000059FD07F104031846FFF7CCF94FF04703E3
:10161000BB634FF00403BB864FF00003BB874FF062
:101620000003FB8607F134034FF40050C4F20000BE
:101630001946FFF77DFC4FF40050C4F200004FF054
:101640000101FFF717FD4FF40050C4F200004FF006
:1016500001014FF00102FFF79FFD4FF02D033B709A
:101660004FF000037B704FF00003BB704FF001039D
:10167000FB703B461846FFF711F900F027F907F118
:101680004807BD4680BD00BF80B500AF4FF4005095
:10169000C4F200004FF00101FFF7A2FD0346002B4A
:1016A00013D04FF40050C4F200004FF00101FFF7D7
:1016B000C7FD40F2BC13C2F200031B6803F1010234
:1016C00040F2BC13C2F200031A6080BD80B582B044
:1016D00000AF786040F2BC13C2F200034FF000028A
:1016E0001A604FF40050C4F200004FF00101FFF700
:1016F000E1FC00BF40F2BC13C2F200031A687B6831
:101700009A42F7D34FF40050C4F200004FF00001AA
:10171000FFF7D0FC07F10807BD4680BD80B582B059
:1017200000AF00F0C1F84FF00100FFF7CFFF00F06D
:10173000CDF84FF00200FFF7C9FF00F02FF9034684
:10174000FB714FF00A00FFF7C1FFFB79184607F164
:101750000807BD4680BD00BF80B500AF00F0A4F80B
:101760004FF00100FFF7B2FF00F0B0F84FF01000AB
:10177000FFF7ACFF80BD00BF80B500AF00F094F86C
:101780004FF01000FFF7A2FF00F0A0F84FF00100AB
:10179000FFF79CFF80BD00BF80B582B000AF4FF067
:1017A0000003FB714FF00103BB714FF000037B712D
:1017B00010E0FFF7B3FF0346012B03D1FA79BB79A1
:1017C0001343FB71BB794FEA4303BB717B7903F190
:1017D00001037B717B79072BEBD9FB79184607F165
:1017E0000807BD4680BD00BF80B584B000AF03468A
:1017F000FB714FF00103FB734FF00003BB7312E06A
:10180000FA79FB7B1340DBB2002B02D1FFF7B4FF68
:1018100001E0FFF7A1FFFB7B4FEA4303FB73BB7BB8
:1018200003F10103BB73BB7B072BE9D907F1100759
:10183000BD4680BD80B584B000AF4FF00103FB739F
:101840004FF00003BB604FF01400FFF73FFF00F0C4
:101850002BF84FF07000FFF739FF00F037F84FF02A
:101860000400FFF733FF4FF03C0000F041F8B86090
:101870004FF00A00FFF72AFF00F090F80346FB71D3
:101880004FF01800FFF722FFBB68042B05D9FB7946
:10189000012B02D14FF00003FB73FB7B184607F1CD
:1018A0001007BD4680BD00BF80B500AF40F22403E5
:1018B000C2F200031A6840F22803C2F200031B8838
:1018C00010461946FEF770FF80BD00BF80B500AF1F
:1018D00040F22403C2F200031A6840F22803C2F265
:1018E00000031B8810461946FEF750FF80BD00BF5D
:1018F00080B586B000AF78604FF000037B614FF099
:1019000000033B614FF00003FB6040F2BC13C2F2E6
:1019100000034FF000021A604FF40050C4F20000C0
:101920004FF00101FFF7C6FB00F038F80346002B2B
:1019300009D13B69002B12D140F2BC13C2F2000363
:101940001B683B610BE03B69002B08D0FB68002B58
:1019500005D140F2BC13C2F200031B68FB6040F2E9
:10196000BC13C2F200031A687B689A42DCD34FF4BE
:101970000050C4F200004FF00001FFF79BFBFA6833
:101980003B699A4203D9FA683B69D31A7B617B6948
:10199000184607F11807BD4680BD00BF80B582B06C
:1019A00000AF40F22403C2F200031A6840F2280399
:1019B000C2F200031B8810461946FEF7C7FE034615
:1019C000FB71FB79184607F10807BD4680BD00BFD3
:1019D00090B585B000AF7860FFF72CFF0346002B71
:1019E00017D14FF03300FFF7FFFE4FF00003FB600D
:1019F0000AE07A68FB68D418FFF7CEFE034623702E
:101A0000FB6803F10103FB60FB68072BF1D9FFF7CB
:101A100011FF07F11407BD4690BD00BF80B584B02B
:101A200000AF78604FF05500FFF7DEFE4FF0000387
:101A3000FB730AE0FB7B7A68D3181B781846FFF724
:101A4000D3FEFB7B03F10103FB73FB7B072BF1D977
:101A50004FF04400FFF7C8FE07F11007BD4680BDF8
:101A600090B589B000AF78604FF00003FB614FF094
:101A70000003BB61FFF752FE03467B75BB6903F1B0
:101A80000103BB617B7D002B04D1BA694CF24F335B
:101A90009A42EFD97B7D002B00F0F880FFF7CAFE59
:101AA0000346002B40F0F2804FF05500FFF79CFEFC
:101AB0004FF00003FB750AE0FB7D7A68D3181B78B2
:101AC0001846FFF791FEFB7D03F10103FB75FB7DDB
:101AD000072BF1D94FF0BE00FFF786FE4FF0000351
:101AE000BB750DE0BC7DFFF757FE03461A4607F1B4
:101AF00020010B1903F8182CBB7D03F10103BB7502
:101B0000BB7D082BEED93B7B03F06003602B28D113
:101B10007B7A03F007039BB24FEA03237B823B7A75
:101B20001A467B8A13437B827B7ADBB25BB2002B43
:101B300006DB7B8A40F2712202FB03F3FB61A5E026
:101B40007B8A83F4FF6383F007037B827B8A03F144
:101B500001037B827B8A6FF41C7202FB03F3FB613F
:101B600094E03B7B03F06003402B2DD17B7A03F0A4
:101B700007039BB24FEAC3137B823B7A4FEA5303BE
:101B8000DBB21A467B8A13437B827B7ADBB25BB281
:101B9000002B06DB7B8A40F2E24202FB03F3FB618F
:101BA00074E07B8A83F47F7383F003037B827B8AF8
:101BB00003F101037B827A8A4FF61E33CFF6FF735F
:101BC00003FB02F3FB6161E03B7B03F06003202B2E
:101BD0002DD17B7A03F007039BB24FEA83137B82FC
:101BE0003B7A4FEA9303DBB21A467B8A13437B822C
:101BF0007B7ADBB25BB2002B06DB7B8A40F6C41239
:101C000002FB03F3FB6141E07B8A83F4FF7383F003
:101C100001037B827B8A03F101037B827A8A4FF284
:101C20003C63CFF6FF7303FB02F3FB612EE03B7BCB
:101C300003F06003002B29D17B7A4FEA43139BB258
:101C4000DBB27B823B7A4FEAD303DBB21A467B8A54
:101C500013437B827B7ADBB25BB2002B06DB7B8A91
:101C600041F2883202FB03F3FB610FE07B8A83F0D1
:101C7000FF037B827B8A03F101037B827A8A4EF623
:101C80007843CFF6FF7303FB02F3FB61FB69184651
:101C900007F12407BD4690BD80B584B000AF7860E1
:101CA0000B46FB70FB780A2B09D00A2B03DB0B2BAE
:101CB00009D00C2B0BD04FF00003FB730BE04FF05F
:101CC0002003FB7307E04FF04003FB7303E04FF08A
:101CD0006003FB7300BFFFF7ADFD4FF05500FFF74A
:101CE00083FD4FF00003BB730AE0BB7B7A68D31817
:101CF0001B781846FFF778FDBB7B03F10103BB732C
:101D0000BB7B072BF1D94FF04E00FFF76DFD4FF075
:101D10007F00FFF769FD4FF08000FFF765FDFB7B5B
:101D20001846FFF761FDFFF785FD07F11007BD4677
:101D300080BD00BF80B584B000AF0346FB71FB7966
:101D4000022B12D0032B21D040F22403C2F2000355
:101D50004FF48062C4F600021A6040F22803C2F217
:101D600000034FF480421A8021E040F22403C2F2C3
:101D700000034FF4A052C4F600021A6040F2280398
:101D8000C2F200034FF080021A8010E040F22403F8
:101D9000C2F200034FF4A052C4F600021A6040F2EF
:101DA0002803C2F200034FF040021A8000BF07F17F
:101DB00008031846FFF70CFE07F1080318464FF01A
:101DC0000901FFF769FF07F108031846FFF726FE30
:101DD00007F108031846FFF743FE0346184607F1CC
:101DE0001007BD4680BD00BF80B483B000AF7860EF
:101DF00000E000BF7B68002B0CBF00230123DBB297
:101E00007A6802F1FF327A60002BF2D107F10C07F9
:101E1000BD4680BC704700BF80B582B000AF4FF4B4
:101E200000304FF00101FEF7ADFF4FF480204FF07E
:101E30000101FEF7A7FF4FF400204FF00101FEF76C
:101E4000A1FF4FF480104FF00101FEF79BFF4FF010
:101E500001033B714FF00003BB714FF480733B6093
:101E60004FF00003FB714FF002037B713B464FF0D4
:101E700090401946FEF7C2FB4FF001033B714FF053
:101E80000003BB714FF400433B604FF00003FB7154
:101E90004FF002037B713B464FF48060C4F60000B4
:101EA0001946FEF7ABFB4FF001033B714FF0000307
:101EB000BB714FF470733B604FF00003FB714FF048
:101EC00002037B713B464FF40060C4F600001946E4
:101ED000FEF794FB4FF001033B714FF00003BB7121
:101EE0004FF480733B604FF00003FB714FF002032F
:101EF0007B713B464FF44060C4F600001946FEF784
:101F00007DFB4AF22010C0F20700FFF76DFF4FF093
:101F1000300000F053F848F2A060C0F20100FFF773
:101F200063FF4FF0300000F049F84CF25030FFF7FB
:101F30005BFF4FF0300000F041F844F62060FFF7FF
:101F400053FF4FF0200000F039F844F62060FFF70F
:101F50004BFF4FF0280000F097F844F62060FFF7A1
:101F600043FF4FF0080000F08FF844F62060FFF7C1
:101F70003BFF4FF0010000F087F844F62060FFF7C8
:101F800033FF4FF0060000F07FF844F62060FFF7C3
:101F90002BFF4FF00C0000F077F844F62060FFF7BD
:101FA00023FF4FF0800000F06FF844F62060FFF749
:101FB0001BFF07F10807BD4680BD00BF80B582B09A
:101FC00000AF0346FB714FF48060C4F600004FF48D
:101FD0000041FEF7E9FBFB794FEA1313DBB2184629
:101FE00000F004F807F10807BD4680BD80B582B057
:101FF00000AF0346FB714FF44060C4F600004FF49D
:102000008071FEF7C3FBFB7903F00103DBB24FF4F1
:102010000060C4F600004FF040011A46FEF7D2FB04
:10202000FB7903F00203DBB24FF40060C4F600005A
:102030004FF080011A46FEF7C5FBFB7903F004035D
:10204000DBB24FF40060C4F600004FF480711A4612
:10205000FEF7B8FBFB7903F00803DBB24FF4006036
:10206000C4F600004FF400711A46FEF7ABFB4FF4C4
:102070004060C4F600004FF48071FEF795FB07F155
:102080000807BD4680BD00BF80B582B000AF0346E3
:10209000FB714FF48060C4F600004FF40041FEF77E
:1020A00083FBFB794FEA1313DBB21846FFF79EFF61
:1020B000FB791846FFF79AFF07F10807BD4680BD78
:1020C00080B582B000AF0346FB714FF47A70FFF722
:1020D0008BFE4FF48060C4F600004FF40041FEF721
:1020E00055FBFB794FEA1313DBB21846FFF77EFF6F
:1020F0004FF47A70FFF778FEFB791846FFF776FF0A
:1021000007F10807BD4680BD80B582B000AF034629
:10211000FB71FB794FF090404FF480711A46FEF747
:1021200051FB07F10807BD4680BD00BF80B584B0F4
:1021300000AF0B463A600246FA71BB71FB79002B87
:1021400002D1BB79FB7306E0FB79012B21D1BB796E
:1021500003F12803FB7344F62060FFF745FEFB7B89
:1021600063F07F03DBB21846FFF78EFF44F6206072
:10217000FFF73AFE08E03B681B783A6802F101027B
:102180003A601846FFF79CFF3B681B78002BF2D1A2
:1021900000E000BF07F11007BD4680BD80B584B0E8
:1021A00000AF4FF006037B814FF006033B814FF0F9
:1021B0000003FB814FF00003FB804FF00003BB8066
:1021C0004FF6FF73BB814FF47043C0F600031B88CA
:1021D0007B814FF47843C0F600031B883B817B89E9
:1021E0004EF6EE62934244D04FF6FF72934203D014
:1021F000002B00F0D58059E13B89002B0DD14FF425
:102200007040C0F60000FEF71BF903467B807B8818
:10221000042B00F054817B885AE13A894EF6EE6334
:102220009A421CD14FF47040C0F60000FEF708F946
:1022300003467B807B88042B01D07B8848E14FF4E8
:102240007840C0F600004FF00001FEF73FF903466A
:102250007B807B88042B00F032817B8838E100F0A2
:10226000BDF903467B807B88042B00F028817B88A6
:102270002EE13B89002B67D14FF00003FB8143E047
:102280004FF20603C0F600031B889AB2F98940F2A8
:102290002C03C2F2000333F811309A4201D1FB89BA
:1022A000BB81FA89B7F90C309A4229D0FA8940F2F9
:1022B0002C03C2F2000333F81230184640F2C0116A
:1022C000C2F2000100F00AF90346BB80BB88012B73
:1022D00016D0FA8940F22C03C2F2000333F8122020
:1022E00040F2C013C2F200031B881046194600F0EA
:1022F000F7F90346FB80FB88042B01D0FB88E7E05D
:10230000FB8903F10103FB81FB89072BB8D94FF44B
:102310007040C0F600004FF00001FEF7D7F803460A
:102320007B807B88042B01D07B88D1E04FF4784000
:10233000C0F60000FEF784F803467B807B88042B00
:1023400000F0BF807B88C3E03A894FF6FF739A4262
:102350001CD14FF47840C0F60000FEF771F8034638
:102360007B807B88042B01D07B88B1E04FF47040E8
:10237000C0F600004FF00001FEF7A8F803467B808E
:102380007B88042B00F09D807B88A1E000F026F97B
:1023900003467B807B88042B00F093807B8897E04A
:1023A0003B89002B09D100F019F903467B807B881B
:1023B000042B00F088807B888AE03A894FF6FF730F
:1023C0009A420CD14FF47840C0F60000FEF738F87E
:1023D00003467B807B88042B75D07B8878E04FF0A8
:1023E0000003FB8143E04FF60603C0F600031B88A1
:1023F0009AB2F98940F22C03C2F2000333F811308B
:102400009A4201D1FB89BB81FA89B7F90C309A4213
:1024100029D0FA8940F22C03C2F2000333F81230BB
:10242000184640F2C011C2F2000100F057F803460E
:10243000BB80BB88012B16D0FA8940F22C03C2F274
:10244000000333F8122040F2C013C2F200031B88CD
:102450001046194600F044F90346FB80FB88042B24
:1024600001D0FB8834E0FB8903F10103FB81FB8988
:10247000072BB8D94FF47840C0F600004FF00001A8
:10248000FEF724F803467B807B88042B01D07B88F1
:102490001EE04FF47040C0F60000FDF7D1FF034688
:1024A0007B807B88042B0ED07B8811E000F096F8AF
:1024B00003467B807B88042B07D07B8808E000BF25
:1024C00004E000BF02E000BF00E000BF4FF00403E3
:1024D000184607F11007BD4680BD00BF80B586B025
:1024E00000AF03463960FB804FF00003FB8145F2EB
:1024F0005553BB814FF00103FB824FF00003C0F640
:1025000001033B614FF00003C0F60103BB604FF0D5
:10251000000000F093F80346FB81FB89AB2B02D14E
:102520004FF0AB0331E0FB894FEAC32303F10063B3
:1025300003F57043BB60FB8903F101034FEAC3233A
:102540001A464EF6FE73C0F60003D3183B6115E041
:102550003B691B88BB81BA89FB889A420AD13B69D7
:10256000A3F102031B889AB23B681A804FF0000364
:10257000FB8209E03B69A3F104033B61BB6803F103
:1025800002023B699A42E3D3FB8A184607F1180717
:10259000BD4680BD80B584B000AF02460B46FA80D0
:1025A000BB804FF00003FB81FA88BB8810461946B8
:1025B00000F096F80346FB81FB89802B07D1FA884F
:1025C000BB881046194600F0F1F80346FB81FB89F1
:1025D000184607F11007BD4680BD00BF80B582B028
:1025E00000AF4FF00403FB714FF47040C0F60000E1
:1025F000FDF726FF0346FB71FB79042B01D0FB7925
:1026000017E04FF47040C0F600004FF00001FDF7F6
:102610005DFF0346FB71FB79042B01D0FB7908E0D9
:102620004FF47840C0F60000FDF70AFF0346FB7147
:10263000FB79184607F10807BD4680BD80B485B018
:1026400000AF0346FB714FF00603FB814FF006031A
:10265000BB814FF47043C0F600031B88FB814FF42D
:102660007843C0F600031B88BB81FB79002B20D088
:10267000012B2DD1BB89002B0AD1FA894EF6EE63CE
:102680009A4202D14FF0000324E04FF0010321E011
:10269000FB89002B0AD1BA894EF6EE639A4202D129
:1026A0004FF0010316E04FF0000313E04FF0AB03CF
:1026B00010E0FB89002B02D14FF000030AE0BB8938
:1026C000002B02D14FF0010304E04FF0AB0301E017
:1026D0004FF00003184607F11407BD4680BC704751
:1026E00080B586B000AF02460B46FA80BB804FF043
:1026F0000403FB744FF000033B824FF00003C0F66D
:1027000001037B6140F2FF73C0F60103FB604FF0F1
:102710000100FFF793FF03463B823B8AAB2B02D1BC
:102720004FF0AB033DE03B8A4FEAC32303F1006364
:1027300003F570437B613B8A03F101034FEAC32336
:102740001A464EF6FE73C0F60003D318FB6022E073
:102750007B691B68B3F1FF3F19D1BB8878691946C3
:10276000FDF7B4FE0346FB74FB7C042B02D0FB7C1C
:102770009BB216E07B6903F10202FB881046194602
:10278000FDF7A4FE0346FB74FB7C9BB209E07B696A
:1027900003F104037B617A69FB689A42D8D34FF056
:1027A0008003184607F11807BD4680BD80B588B084
:1027B00000AF02460B46FA80BB804FF004037B75E6
:1027C00040F2FF33C0F60103FB614FF00003C0F697
:1027D0000103BB614FF000037B824FF00003FB82DB
:1027E0004FF000033B824FF00003FB814FF00000ED
:1027F000FFF724FF03467B827B8A012B0AD14FF42B
:102800007043C0F60003FB614FF47843C0F6000349
:10281000BB6110E07B8A002B0AD14FF47843C0F6ED
:102820000003FB614FF47043C0F60003BB6102E09C
:102830004FF0AB0372E0F8694EF6EE61FDF746FE2D
:1028400003467B757B7D042B02D07B7D9BB265E0CC
:10285000FA88BB8810461946FFF742FF03463B82C1
:102860003B8A042B01D03B8A58E04FF00003FB82E7
:1028700037E0FA8A40F22C03C2F2000333F8123038
:10288000FA889A4229D0FA8A40F22C03C2F2000355
:1028900033F81230184640F2C011C2F20001FFF7BF
:1028A0001DFE0346FB81FB89012B16D0FA8A40F2FC
:1028B0002C03C2F2000333F8122040F2C013C2F21C
:1028C00000031B8810461946FFF70AFF03463B82A8
:1028D0003B8A042B01D03B8A20E0FB8A03F10103F1
:1028E000FB82FB8A072BC4D9B869FDF7A9FD034613
:1028F0007B757B7D042B02D07B7D9BB20EE0F8695B
:102900004FF00001FDF7E2FD03467B757B7D042B54
:1029100002D07B7D9BB201E07B7D9BB2184607F124
:102920002007BD4680BD00BF80B584B000AF4FF426
:1029300080204FF00101FEF725FA4FF002033B73B0
:102940004FF00003BB734FF0C003BB604FF00003B8
:10295000FB734FF003037B7307F108034FF48060B0
:10296000C4F600001946FDF749FE4FF48060C4F636
:1029700000004FF006014FF00202FDF73BFF4FF45D
:102980008060C4F600004FF007014FF00202FDF72F
:1029900031FF4FF004004FF00101FEF747FA4FF40A
:1029A0000060C4F200004FF001014FF000024FF050
:1029B0000003FEF757FC4FF40060C4F200004FF034
:1029C0000101FEF749FB4FF40060C4F200004FF034
:1029D00000014FF00102FEF72BFB4FF01E033B718D
:1029E0004FF00103FB714FF000037B714FF00003C8
:1029F000BB7107F104031846FDF750FF4FF4006068
:102A0000C4F200004FF001014FF00102FEF7C4FBD9
:102A10004FF40060C4F200004FF00101FEF74AFBE2
:102A200007F11007BD4680BD80B500AF4FF40060D0
:102A3000C4F200004FF00101FEF7D2FB0346002B69
:102A400013D04FF40060C4F200004FF00101FEF714
:102A5000F7FB4FF40063C4F200035B6A002B02D063
:102A600000F0D6FE01E000F0B3FE80BD80B483B07C
:102A700000AF03463960FB7197F90730002B10DA7D
:102A80004FF46D43CEF20003FA7902F00F02A2F187
:102A900004013A68D2B24FEA0212D2B25B181A7637
:102AA0000DE04FF46143CEF2000397F907103A6846
:102AB000D2B24FEA0212D2B25B1883F8002307F1B8
:102AC0000C07BD4680BC704780B582B000AF78600F
:102AD0007A686FF07F439A4202D94FF001031FE0FA
:102AE0004EF21003CEF200037A6822F07F4202F128
:102AF000FF325A604FF0FF304FF00F01FFF7B6FF83
:102B00004EF21003CEF200034FF000029A604EF234
:102B10001003CEF200034FF007021A604FF00003DB
:102B2000184607F10807BD4680BD00BF90B59FB0AD
:102B300004AF00F08DFEFDF763FCFFF72FFB4FF0B5
:102B40000003A7F85E304FF04003FB644FF003032F
:102B5000A7F850304FF00103A7F852304FF041036F
:102B6000A7F856304FF04B03A7F85A304FF0460302
:102B7000A7F854304FF05003A7F8583040F22C0318
:102B8000C2F2000303F5005303F102031A8807F1B0
:102B90005E0310461946FFF7A1FC0346002B04D044
:102BA00007F14C03184600F097FE4FF400304FF049
:102BB0000101FEF7E7F84FF0010387F848304FF0C6
:102BC000000387F84A304FF001037B644FF00003A5
:102BD00087F84B304FF0030387F8493007F144037F
:102BE0004FF090401946FDF709FD4FF090404FF02F
:102BF0000101FDF7CBFDFFF70FF94FF00100FFF7E3
:102C000083FAFEF7B9FCFFF78FFEFEF775FB4FF472
:102C100000304FF00101FEF7B5F84FF0020387F8DE
:102C200048304FF0000387F84A304FF480737B64DC
:102C30004FF0000387F84B304FF0030387F849301B
:102C400007F144034FF090401946FDF7D7FC4FF0D1
:102C50000400FDF797FE4FF400204FF00101FEF74E
:102C600091F84FF0010387F848304FF0000387F8E0
:102C70004A304FF460437B644FF0000387F84B30D9
:102C80004FF0020387F8493007F144034FF4006026
:102C9000C4F600001946FDF7B1FC4FF40060C4F61D
:102CA00000004FF46041FDF77FFD4FF0020387F80D
:102CB00048304FF0000387F84A304FF004037B643C
:102CC0004FF0000387F84B304FF0030387F849308B
:102CD00007F144034FF090401946FDF78FFC4FF089
:102CE00008004FF00101FEF7A1F84FF44060C4F274
:102CF00000004FF00001FEF7DDF94FF04703BB6223
:102D00004FF00403BB844FF00003BB854FF000037A
:102D1000FB8407F124034FF44060C4F2000019461D
:102D2000FEF706F94FF44060C4F200004FF00101D5
:102D3000FEF7A0F94FF060033B824FF000033B84A5
:102D40004FF400737B844FF00003BB834FF000030C
:102D5000FB834FF001037B824FF00003BB824FF0F7
:102D60002403BB6107F110034FF44060C4F200007C
:102D70001946FEF7BFF94FF090404FF002014FF0B7
:102D80000202FDF737FD4FF44060C4F200004FF03F
:102D90000101FEF78FF94FF0130387F8673007F151
:102DA00004034FF000021A6003F104034FF0000225
:102DB0001A6003F104034FF000021A6003F10403E8
:102DC00007F14C03184600F043FE40F2C413C2F270
:102DD00000031B6843F0400240F2C413C2F2000338
:102DE0001A604FF00000FEF71DFB0346002B19D0C0
:102DF00040F2C813C2F200031B683B2B0BD840F211
:102E0000C413C2F200031B6843F0040240F2C4136F
:102E1000C2F200031A6040F2C813C2F200034FF07E
:102E200000021A6040F2C813C2F200031B683B2B79
:102E30000BD940F2C813C2F200034FF03C021A60F3
:102E40004FF00000FFF760F903E04FF00100FFF7DB
:102E50005BF940F2C413C2F200031B6803F04003A5
:102E6000002B37D097F8671040F23C02C2F2000204
:102E70000B464FEA43035B184FEA8303D3181B68E2
:102E80004FF000004FF000011A46FFF74FF997F896
:102E9000671040F23C02C2F200020B464FEA4303C5
:102EA0005B184FEA8303D31803F104031B684FF048
:102EB00001004FF000011A46FFF738F940F2C41341
:102EC000C2F200031B6823F0400240F2C413C2F2B6
:102ED00000031A6097F86730A3F10303102B00F288
:102EE000A88201A151F823F02D2F000833340008E7
:102EF000C12F00083334000865300008333400085F
:102F00000931000833340008AD31000833340008BB
:102F10005132000833340008F53200083334000819
:102F2000333400083334000897330008FB6C07F192
:102F3000300210464FF0110144F60C12C0F60002A8
:102F400000F0FCFF07F130034FF001004FF00001EB
:102F50001A46FFF7EBF840F2C413C2F200031B68F5
:102F600003F00103002B10D040F2C413C2F200039F
:102F70001B6823F0010240F2C413C2F200031A607E
:102F8000FB6C03F10103FB6455E240F2C413C2F28F
:102F900000031B6803F00203002B00F04C8240F298
:102FA000C413C2F200031B6823F0020240F2C413F0
:102FB000C2F200031A60FB6C03F1FF33FB643AE2D8
:102FC000B7F850301BB207F1300210464FF0110134
:102FD00044F61C12C0F6000200F0B0FF07F1300307
:102FE0004FF001004FF000011A46FFF79FF840F242
:102FF000C413C2F200031B6803F00103002B13D0BB
:1030000040F2C413C2F200031B6823F0010240F235
:10301000C413C2F200031A60B7F8503003F1010381
:103020009BB2A7F8503008E240F2C413C2F200038A
:103030001B6803F00203002B00F0FF8140F2C41371
:10304000C2F200031B6823F0020240F2C413C2F272
:1030500000031A60B7F8503003F1FF339BB2A7F8B2
:103060005030EAE1B7F852301BB207F13002104697
:103070004FF0110144F61C12C0F6000200F05EFF92
:1030800007F130034FF001004FF000011A46FFF73F
:103090004DF840F2C413C2F200031B6803F00103B1
:1030A000002B13D040F2C413C2F200031B6823F0BC
:1030B000010240F2C413C2F200031A60B7F85230A2
:1030C00003F101039BB2A7F85230B8E140F2C413F8
:1030D000C2F200031B6803F00203002B00F0AF8173
:1030E00040F2C413C2F200031B6823F0020240F254
:1030F000C413C2F200031A60B7F8523003F1FF3371
:103100009BB2A7F852309AE1B7F854301BB207F1DE
:10311000300210464FF0110144F61C12C0F60002B6
:1031200000F00CFF07F130034FF001004FF00001F9
:103130001A46FEF7FBFF40F2C413C2F200031B68FD
:1031400003F00103002B13D040F2C413C2F20003BA
:103150001B6823F0010240F2C413C2F200031A609C
:10316000B7F8543003F101039BB2A7F8543068E17B
:1031700040F2C413C2F200031B6803F00203002BE9
:1031800000F05F8140F2C413C2F200031B6823F019
:10319000020240F2C413C2F200031A60B7F85430BE
:1031A00003F1FF339BB2A7F854304AE1B7F8563029
:1031B0001BB207F1300210464FF0110144F61C1209
:1031C000C0F6000200F0BAFE07F130034FF0010034
:1031D0004FF000011A46FEF7A9FF40F2C413C2F2F5
:1031E00000031B6803F00103002B13D040F2C4134B
:1031F000C2F200031B6823F0010240F2C413C2F2C2
:1032000000031A60B7F8563003F101039BB2A7F828
:10321000563018E140F2C413C2F200031B6803F0F9
:103220000203002B00F00F8140F2C413C2F200032E
:103230001B6823F0020240F2C413C2F200031A60BA
:10324000B7F8563003F1FF339BB2A7F85630FAE0D7
:10325000B7F858301BB207F1300210464FF0110199
:1032600044F61C12C0F6000200F068FE07F13003BD
:103270004FF001004FF000011A46FEF757FF40F2F1
:10328000C413C2F200031B6803F00103002B13D028
:1032900040F2C413C2F200031B6823F0010240F2A3
:1032A000C413C2F200031A60B7F8583003F10103E7
:1032B0009BB2A7F85830C8E040F2C413C2F2000332
:1032C0001B6803F00203002B00F0BF8040F2C41320
:1032D000C2F200031B6823F0020240F2C413C2F2E0
:1032E00000031A60B7F8583003F1FF339BB2A7F818
:1032F0005830AAE0B7F85A301BB207F13002104636
:103300004FF0110144F61C12C0F6000200F016FE48
:1033100007F130034FF001004FF000011A46FEF7AD
:1033200005FF40F2C413C2F200031B6803F001035F
:10333000002B13D040F2C413C2F200031B6823F029
:10334000010240F2C413C2F200031A60B7F85A3007
:1033500003F101039BB2A7F85A3078E040F2C4139E
:10336000C2F200031B6803F00203002B6FD040F28F
:10337000C413C2F200031B6823F0020240F2C4131C
:10338000C2F200031A60B7F85A3003F1FF339BB260
:10339000A7F85A305BE04FF0000387F8663040F240
:1033A000C413C2F200031B6803F00803002B05D00E
:1033B00097F8663003F1640387F8663040F2C4136F
:1033C000C2F200031B6803F02003002B05D097F81E
:1033D000663003F10A0387F8663040F2C413C2F284
:1033E00000031B6803F01003002B05D097F866302C
:1033F00003F1010387F866307B68BC68F86897F8CA
:10340000661007F1300200940190029110464FF0CF
:10341000110144F63012C0F6000200F08FFD07F1F2
:1034200030034FF001004FF000011A46FEF77EFE18
:103430000EE000BF0CE000BF0AE000BF08E000BFE4
:1034400006E000BF04E000BF02E000BF00E000BFF4
:103450004FF000033B661FE03B6EDBB203F101035C
:10346000DBB21846FEF766FC024648F6AD33C6F6F8
:10347000DB0383FB02134FEA23314FEAE273CA1ADC
:103480003B6E4FEA830307F16801CB1843F8642CC5
:103490003B6E03F101033B663B6E022BDCDD97F8CC
:1034A000671040F23C02C2F200020B464FEA4303AF
:1034B0005B184FEA8303D31803F10803DB78002B72
:1034C00032D140F2C413C2F200031B6803F00203BE
:1034D000002B29D040F2C413C2F200031B6823F072
:1034E000020240F2C413C2F200031A6097F8671098
:1034F00040F23C02C2F200020B464FEA43035B1863
:103500004FEA8303D31803F108035B7887F8673029
:1035100040F2C413C2F200031B6843F0400240F2C1
:10352000C413C2F200031A6097F8671040F23C021D
:10353000C2F200020B464FEA43035B184FEA8303D3
:10354000D31803F10803DB78002B32D140F2C41307
:10355000C2F200031B6803F00103002B29D040F2E4
:10356000C413C2F200031B6823F0010240F2C4132B
:10357000C2F200031A6097F8671040F23C02C2F2F0
:1035800000020B464FEA43035B184FEA8303D3184C
:1035900003F108031B7887F8673040F2C413C2F2C6
:1035A00000031B6843F0400240F2C413C2F2000360
:1035B0001A6040F2C413C2F200031B6803F0040354
:1035C000002B32D040F2C413C2F200031B6823F078
:1035D000040240F2C413C2F200031A6097F8673085
:1035E000012B04D107F14C03184600F075F997F848
:1035F000671040F23C02C2F200020B464FEA43035E
:103600005B184FEA8303D31803F108039B7887F80C
:10361000673040F2C413C2F200031B6843F040025B
:1036200040F2C413C2F200031A6040F2C413C2F2A3
:1036300000031B6803F00803002B18D07A68BB68EE
:10364000D21AB7F8503019B2B7F852301BB2CB1AB1
:103650009A4224DC40F2C413C2F200031B6823F038
:10366000080240F2C413C2F200031A6017E07A683D
:10367000BB68D21AB7F8503019B2B7F852301BB243
:10368000CB189A420BDD40F2C413C2F200031B6850
:1036900043F0080240F2C413C2F200031A60BA6891
:1036A000B7F854301BB29A420BDB40F2C413C2F29B
:1036B00000031B6843F0100240F2C413C2F200037F
:1036C0001A60BA68B7F856301BB29A420BDC40F267
:1036D000C413C2F200031B6823F0100240F2C413AB
:1036E000C2F200031A60BA68B7F858301BB29A42A7
:1036F0000BDB40F2C413C2F200031B6843F020024C
:1037000040F2C413C2F200031A60BA68B7F85A3024
:103710001BB29A420BDC40F2C413C2F200031B68D6
:1037200023F0200240F2C413C2F200031A6040F2F8
:10373000C413C2F200031B6803F00803002B08D077
:103740004FF40060C4F600004FF40041FDF71EF88E
:1037500007E04FF40060C4F600004FF40041FDF7AD
:1037600023F840F2C413C2F200031B6803F01003F5
:10377000002B08D04FF40060C4F600004FF48041E5
:10378000FDF704F807E04FF40060C4F600004FF4C2
:103790008041FDF709F840F2C413C2F200031B6830
:1037A00003F02003002B09D04FF40060C4F60000A2
:1037B0004FF40051FCF7EAFFFFF713BB4FF4006032
:1037C000C4F600004FF40051FCF7EEFFFFF709BB11
:1037D00080B400AF40F2C813C2F200031B683B2B59
:1037E0000BD840F2C413C2F200031B6843F001027D
:1037F00040F2C413C2F200031A6040F2C813C2F2CE
:1038000000034FF000021A60BD4680BC704700BF45
:1038100080B400AF40F2C813C2F200031B683B2B18
:103820000BD840F2C413C2F200031B6843F002023B
:1038300040F2C413C2F200031A6040F2C813C2F28D
:1038400000034FF000021A60BD4680BC704700BF05
:1038500080B58CB000AF3B461846FDF7A3F87A68F8
:103860004CF6CD43CCF6CC43A3FB02134FEAD30373
:103870001846FFF729F907F13007BD4680BD00BFA4
:1038800080B400AF40F22C13C2F200031B6803F1B6
:10389000FF3240F22C13C2F200031A6040F22C13E4
:1038A000C2F200031B68002B12D140F22C13C2F2AB
:1038B00000034FF009021A6040F2C813C2F200037D
:1038C0001B6803F1010240F2C813C2F200031A6040
:1038D000BD4680BC704700BF80B586B000AF786041
:1038E00007F10803184600F0B3F8BA687B681B6854
:1038F0009A421FD040F22C03C2F2000303F500539A
:103900001A887B681B689BB210461946FEF742FE78
:1039100040F22C03C2F2000303F5005303F102034B
:103920001A887B681B684FEA13439BB210461946FE
:10393000FEF730FEBA897B689B8812B21BB29A42AE
:103940000FD040F22C03C2F2000303F5005303F141
:1039500004031A887B689B889BB210461946FEF7C1
:1039600019FEFA897B68DB8812B21BB29A420FD02B
:1039700040F22C03C2F2000303F5005303F10603E7
:103980001A887B68DB889BB210461946FEF702FE58
:103990007A8A7B685B8912B21BB29A420FD040F2DE
:1039A0002C03C2F2000303F5005303F10A031A8843
:1039B0007B685B899BB210461946FEF7EBFDFA8ADD
:1039C0007B68DB8912B21BB29A420FD040F22C0303
:1039D000C2F2000303F5005303F10E031A887B685B
:1039E000DB899BB210461946FEF7D4FD3A8A7B6804
:1039F0001B8912B21BB29A420FD040F22C03C2F2C2
:103A0000000303F5005303F108031A887B681B8940
:103A10009BB210461946FEF7BDFDBA8A7B689B89AA
:103A200012B21BB29A420FD040F22C03C2F2000332
:103A300003F5005303F10C031A887B689B899BB242
:103A400010461946FEF7A6FD07F11807BD4680BDD2
:103A500080B584B000AF786040F22C03C2F200035E
:103A600003F5005303F102031A8807F10E03104611
:103A70001946FEF733FD40F22C03C2F2000303F5B2
:103A800000531A8807F10C0310461946FEF726FD6D
:103A9000FB894FEA03431A46BB891A437B681A60C5
:103AA00040F22C03C2F2000303F5005303F10403B8
:103AB0001A8807F10E0310461946FEF70FFDFB8921
:103AC0009AB27B689A8040F22C03C2F2000303F59D
:103AD000005303F106031A8807F10E031046194636
:103AE000FEF7FCFCFB899AB27B68DA8040F22C037B
:103AF000C2F2000303F5005303F10A031A8807F129
:103B00000E0310461946FEF7E9FCFB899AB27B6862
:103B10005A8140F22C03C2F2000303F5005303F173
:103B20000E031A8807F10E0310461946FEF7D6FC5D
:103B3000FB899AB27B68DA8140F22C03C2F200035F
:103B400003F5005303F108031A8807F10E0310462A
:103B50001946FEF7C3FCFB899AB27B681A8140F2D2
:103B60002C03C2F2000303F5005303F10C031A887F
:103B700007F10E0310461946FEF7B0FCFB899AB216
:103B80007B689A8107F11007BD4680BD0649074A48
:103B9000074B9A42BEBF51F8040B42F8040BF8E7FA
:103BA000044880470448004790490008000000206E
:103BB0009C010020713C0008DD0100082A492B4AC5
:103BC000002301E041F8043B9142FBD3FEF7AEFF36
:103BD000FEE7FEE7FEE7FEE7FEE7FEE7FEE7FEE7BD
:103BE000FEE7FEE7FEE7FEE7FEE7FEE7FEE7FEE7AD
:103BF000FEE7FEE7FEE7FEE7FEE7FEE7FEE7FEE79D
:103C0000FEE7FEE7FEE7FEE7FEE7FEE7FEE7FEE78C
:103C1000FEE7FEE7FEE7FEE7FEE7FEE7FEE7FEE77C
:103C2000FEE7FEE7FEE7FEE7FEE7FEE7FEE7FEE76C
:103C3000FEE7FEE7FEE7FEE7FEE7FEE7FEE7FEE75C
:103C4000FEE7FEE7FEE7FEE7FEE7FEE7FEE7FEE74C
:103C5000FEE7FEE7FEE7FEE7FEE7FEE7FEE7FEE73C
:103C6000FEE7FEE7FEE700009C010020DC010020EB
:103C700080B500AF4FF48053C4F202034FF480527A
:103C8000C4F20202126842F001021A604FF480533B
:103C9000C4F202034FF48052C4F20202526802F4EA
:103CA0007F025A604FF48053C4F202034FF48052F3
:103CB000C4F20202126822F0847222F480321A6086
:103CC0004FF48053C4F202034FF48052C4F2020254
:103CD000126822F480221A604FF48053C4F2020367
:103CE0004FF48052C4F20202526822F4FE025A607B
:103CF0004FF48053C4F202034FF48052C4F2020224
:103D0000D26A22F00F02DA624FF48053C4F2020347
:103D10004FF48052C4F20202126B22F0F02222F021
:103D200073021A634FF48053C4F202034FF000028F
:103D30009A6000F009F84FF46D43CEF200034FF0A3
:103D400000629A6080BD00BF80B483B000AF4FF0C6
:103D500000037B604FF000033B604FF48053C4F2DC
:103D600002034FF48052C4F20202126842F480321D
:103D70001A604FF48053C4F202031B6803F400334B
:103D80003B607B6803F101037B603B68002B03D140
:103D90007B68B3F5A06FECD14FF48053C4F20203FB
:103DA0001B6803F40033002B03D04FF001033B608A
:103DB00002E04FF000033B603B68012B76D14FF4EB
:103DC0000053C4F202034FF012021A604FF4805302
:103DD000C4F202034FF48052C4F2020252685A60E5
:103DE0004FF48053C4F202034FF48052C4F2020233
:103DF00052685A604FF48053C4F202034FF4805269
:103E0000C4F20202526842F480625A604FF4805356
:103E1000C4F202034FF48052C4F20202526822F448
:103E20007C125A604FF48053C4F202034FF4805264
:103E3000C4F20202526842F4F8125A604FF48053FE
:103E4000C4F202034FF48052C4F20202126842F03C
:103E500080721A6000BF4FF48053C4F202031B68E3
:103E600003F00073002BF6D04FF48053C4F202032A
:103E70004FF48052C4F20202526822F003025A60E8
:103E80004FF48053C4F202034FF48052C4F2020292
:103E9000526842F002025A6000BF4FF48053C4F2ED
:103EA00002035B6803F00C03082BF6D107F10C0743
:103EB000BD4680BC704700BF08B5074B044613B130
:103EC0000021AFF30080054B1868836A03B198475F
:103ED000204600F081FC00BF000000004C490008B3
:103EE00070B50E4B0E4DED1AAD1000241E4603E0CA
:103EF00056F8242090470134AC42F9D100F06EFC12
:103F0000084D094BED1AAD1000241E4603E056F88B
:103F1000242090470134AC42F9D170BD94010020B7
:103F2000940100209801002094010020821803468B
:103F300001E003F8011B9342FBD170470CB430B58C
:103F4000164B0C1E9DB01D6804DA8B232B604FF0BE
:103F5000FF301EE04FF40273ADF81430029006906B
:103F600001D0631E00E02346049307934FF6FF73CE
:103F7000ADF81630209A21AB284602A9019300F033
:103F80006FF8421C01DA8B232B6014B1029B0022D4
:103F90001A701DB0BDE8304002B07047900100209B
:103FA0002DE9F0478D68AB4281460C4692461F468C
:103FB0003FD38A8912F4906F39D026680969636902
:103FC000C1EB060803265E43022508F1010302F453
:103FD000806296FBF5F6DB1912B29E4238BF1E4690
:103FE00082B1314600F03EFB054600B913E021697D
:103FF000424600F0D3FAA38923F4906343F0800390
:10400000A3810CE0324600F087FB054638B94846EC
:10401000216900F0E5FA0C23C9F8003018E02561A9
:1040200066614544C8EB06062560A6603D46AF4282
:1040300000D23D462A462068514600F0B8FAA368EF
:104040005B1BA36023685D1925600020BDE8F08735
:10405000A38943F04003A3814FF0FF30BDE8F08710
:104060002DE9F04F9DB0064603938B8903F0800342
:104070001BB20D46144663B10B6953B9402100F0E1
:10408000F1FA2860286110B90C233360D0E0402396
:104090006B610023099320238DF82930DFF89C8180
:1040A000DFF89C9130238DF82A3023469A4613F886
:1040B000012B1AB9BAEB040B0FD002E0252AF5D177
:1040C000F8E73046294622465B46FFF769FF013094
:1040D00000F0A780099B5B4409939AF80030002BFD
:1040E00000F09F8000234FF0FF3204930793059266
:1040F00006938DF853301A930AF1010A4FF0010B21
:1041000005E0C8EB00000BFA00F0034304935446AB
:104110004A482178052200F033FA0AF1010A049B8B
:104120000028EED1D90602D520228DF853201A0797
:1041300002D52B228DF8532022782A2A03D0079B00
:1041400021460A2010E0039A111D12680391002AEB
:1041500001DB079204E0524243F00203079204930A
:10416000013408E000FB03230C4601312278303A89
:10417000092AF7D9079323782E2B19D163782A2B94
:1041800009D1039B1A1D1B6803920234002BB8BF90
:104190004FF0FF330BE0611C00230A2001E000FB1D
:1041A00003230C4601312278303A092AF7D90593C6
:1041B00023482178032200F0E3F940B14023C9EB02
:1041C000000003FA00F0049B03430493013414F845
:1041D000011B1C488DF82810062200F0D1F988B187
:1041E000194B33B9039B073323F0070308330393B9
:1041F00013E003AB0093304604A92A46134BAFF3F8
:10420000008007E003AB0093304604A92A460F4B19
:1042100000F090F8431C074603D0099BDB19099373
:1042200043E7AB8903F040031BB20BB9099801E0E7
:104230004FF0FF301DB0BDE8F08F00BF50490008BF
:10424000564900085A49000800000000A13F000834
:104250002DE9F04715461F468A680B69DDF8208076
:104260009A42A8BF13462B6091F8432006460C469D
:104270000AB101332B602368990602D52B680233FB
:104280002B60236813F0060916D094F84330226897
:10429000003318BF0123920616D41EE001233046D6
:1042A00039465246C047013003D14FF0FF30BDE8D8
:1042B000F08709F1010901E004F1190AE1682B68AE
:1042C000CB1A9945EADBE0E7E218302182F8431087
:1042D00094F84510023382F844103046394604F110
:1042E0004302C0470130E0D023682A68E16803F048
:1042F0000603042B08BFC2EB01052369A2680CBFAB
:1043000025EAE57500259A42C4BFC3EB0203ED1808
:104310004FF000091A3408E001233046394622469E
:10432000C0470130C1D009F10109A945F4DB0020E3
:10433000BDE8F0872DE9FF470E7E0C9D6E2E91465D
:1043400080460C469A4601F1430200F0AF800FD838
:10435000632E1DD006D8002E00F0C080582E40F0ED
:10436000D0804FE0642E1CD0692E40F0CA8018E047
:10437000732E00F0B78005D86F2E2BD0702E40F032
:10438000C08043E0752E25D0782E40F0BA8041E001
:104390002B681A1D1B682A6001F1420781F8423020
:1043A000B3E021682B6811F0800F02D0191D29603D
:1043B00008E011F0400F03F10401296002D0B3F9C5
:1043C000005000E01D68002D45DA2D236D4284F871
:1043D000433040E021682B6811F0800F02D0191D96
:1043E000296007E011F0400F03F10401296001D0BA
:1043F0001D8800E01D68237E5F486F2B14BF0A23D1
:10440000082324E081F845605B4807E00B6843F02F
:1044100020030B607823594884F8453021682B68C5
:1044200011F0800F03F104062E6000D003E04F0668
:1044300001D51D8800E01D68CE0744BF41F0200172
:1044400021601DB9236823F020032360102300217D
:1044500084F8431001E048480A236668002EA660ED
:1044600003DB216821F00401216005B96EB104F17C
:104470004201B5FBF3F603FB16550F46455D01F807
:1044800001593546002EF4D100E01746082B0AD119
:104490002368DB0707D561682369994203DC302371
:1044A00007F8013C013FD21B226133E009682B6809
:1044B00011F0800F05D0191D2960196863690B6020
:1044C0000CE011F0400F03F10401296003D01968DA
:1044D00063690B8002E061691B6819600023236136
:1044E000174617E02B681A1D2A601F68384600F02F
:1044F00047F963682061984288BF2361236963603C
:1045000005E004F1420784F842600123236100239F
:1045100084F84330CDF800A04046214603AA4B461C
:10452000FFF796FE013002D14FF0FF3021E0404608
:1045300049463A462369D0470130F5D023689807A9
:104540000ED4E068039B9842B8BF184611E00123DF
:10455000404649463246D0470130E5D0013502E0B9
:10456000002504F11906E168039BCB1A9D42EEDB9E
:10457000E7E704B0BDE8F087614900087249000828
:1045800010B5C9B20346821803E0047801338C42A7
:1045900003D093421846F8D1002010BD10B5002377
:1045A00002E0CC5CC45401339342FAD110BD814285
:1045B00010B511D28C18A0420ED253428118E418C3
:1045C000CB1801E0A15C995412F1FF32FAD210BD70
:1045D000CC5CC454013300E000239342F8D110BDF9
:1045E00030B500293BD051F8042C0B1F1C49002A80
:1045F000B8BF9B180A6812B95A600B6030BD93426D
:104600000CD219685818904203D15A588918426838
:1046100019605A60124A136030BD0A46516809B1E8
:104620009942FAD9146815199D420AD11B68E318FA
:10463000D0188842136012D108681B1813604B68A9
:104640000CE002D90C23036030BD18681C188C42A2
:1046500003D10C684968001918605960536030BD77
:10466000D0010020F8B5CD1C25F0030508350C2D30
:1046700038BF0C25002D064645DB8D4200D242E0B6
:10468000234B1B681C4612E02268521B0DD40B2AD8
:1046900002D92260A4181EE0A34203D163681C4A19
:1046A000136021E062685A601EE023466468002CB3
:1046B000EAD123E03046214600F052F8386029461E
:1046C000304600F04DF8431C01461CD0C41C24F0B9
:1046D0000304844201D1256006E03046611A00F0EF
:1046E0003FF80130F7D10EE004F10B00231D20F05C
:1046F0000700C31A0AD05A42E250F8BD054F3B6882
:10470000002BDCD1D6E70C2333600020F8BD00BFBE
:10471000D0010020CC010020F8B5064615460C4615
:1047200021B91146BDE8F840FFF79CBF1AB9FFF761
:1047300057FF2C4612E000F02BF8A8420ED230466C
:104740002946FFF78FFF074638B121462A46FFF773
:1047500025FF30462146FFF743FF3C462046F8BD83
:1047600038B5064C002305460846236000F01AF8C9
:10477000431C02D1236803B12B6038BDD80100204F
:10478000034613F8012B002AFBD1181A0138704791
:1047900051F8040C002802DA04390B58C018043808
:1047A00070470000094A136863B1181869468842C7
:1047B00098BF106004D9064B0C221A604FF0FF33EB
:1047C00018467047034B1360EFE700BFD401002089
:1047D000D8010020E0010020FEE700BFF8B500BFCF
:1047E000F8BC08BC9E467047F8B500BFF8BC08BCD2
:1047F0009E46704745696E7374656C6C756E67652F
:104800006E202020000000002020202020202020DA
:104810002020202020202020000000007A757275C2
:1048200065636B2020202020202020200000000035
:1048300043414E2D494420202020202020202020AC
:1048400000000000446966662E204B6F6C2D53708B
:104850002020202000000000487973742E20536F20
:104860006C617220202020200000000054204F4E58
:104870002053702E206C61642E2020200000000048
:1048800054204F4E2053702E206C61642020202035
:104890000000000054204F46462053702E206C61CB
:1048A000642E20200000000054204F4E20556D77CC
:1048B0002E202020202020200000000054204F4ED9
:1048C00020576D772E20202020202020000000007F
:1048D00054204F464620556D772E20202020202042
:1048E0000000000053746174757320202020202084
:1048F00020202020000000004B6F6C2053705520BA
:1049000053704F202053554C000000002530386C68
:104910007820202020202020200000002532642044
:1049200020202020202020202020202020000000E7
:1049300025336C642025336C642025336C6420207F
:1049400025303375000000004300000030010020D6
:10495000232D302B2000686C4C0065666745464768
:1049600000303132333435363738394142434445EB
:10497000460030313233343536373839616263645A
:08498000656600000000000064
:0849880054B8FF7F010000009C
:1049900000000000010203040102030406070809E5
:1049A00002040608020406080A0C0E1014181C2043
:1049B00024282C30000400480040000000100110A2
:1049C000021003100410051006100710F447000829
:1049D0000848000810100200F44700081C480008AE
:1049E0000E020000F44700083048000801040300EC
:1049F000304800080848000803030201F447000893
:104A00004448000802060500444800080848000819
:104A100005050401F4470008584800080408070089
:104A2000584800080848000807070601F44700082E
:104A30006C480008060A0900804800080848000879
:104A400009090801F447000894480008080C0B0005
:104A500094480008084800080B0B0A01F4470008B6
:104A6000A84800080A0E0D00BC48000808480008C5
:104A70000D0D0C01F4470008D04800080C010F0090
:104A8000D0480008084800080F0F0E01E44800084D
:104A90000848000800001200E44800081C4800080C
:104AA00012121000E4480008F84800081111130021
:104AB000F848000808480008131312010900000014
:104AC00000000000000000000000000000000000E6
:104AD00000000000000000000000000000000000D6
:104AE000484900080000000000000000000000002D
:104AF00000000000000000000000000000000000B6
:104B000000000000000000000000000000000000A5
:104B10000000000000000000000000000000000095
:0C4B200030010020AD01000889010008F0
:0400000508000000EF
:00000001FF
